:020000040800F2
:10000000500700200D0200085B1E0008311A00088E
:10001000591E0008510400085D240008000000007B
:100020000000000000000000000000005F1E00084B
:1000300053040008000000005D1E0008611E000857
:1000400027020008270200082702000827020008EC
:1000500027020008270200082702000827020008DC
:1000600027020008270200082702000827020008CC
:1000700027020008270200082702000827020008BC
:1000800027020008270200082702000827020008AC
:10009000270200082702000827020008270200089C
:1000A000270200082702000827020008270200088C
:1000B000270200082702000827020008270200087C
:1000C000270200082702000827020008270200086C
:1000D000270200082702000827020008270200085C
:1000E000270200082702000827020008270200084C
:1000F000270200082702000827020008270200083C
:10010000270200082702000827020008270200082B
:10011000270200082702000827020008270200081B
:10012000270200082702000827020008270200080B
:1001300027020008270200082702000827020008FB
:1001400027020008270200082702000827020008EB
:1001500027020008270200082702000827020008DB
:1001600027020008270200082702000827020008CB
:1001700027020008270200082702000827020008BB
:1001800027020008270200082702000827020008AB
:10019000270200082702000827020008270200089B
:1001A000270200082702000827020008270200088B
:1001B000270200082702000827020008270200087B
:1001C000270200082702000827020008270200086B
:1001D000270200082702000827020008270200085B
:1001E000270200082702000827020008270200084B
:1001F0002702000827020008DFF80CD000F07AF888
:1002000000480047A1240008500700200648804706
:1002100006480047FEE7FEE7FEE7FEE7FEE7FEE7EB
:10022000FEE7FEE7FEE7FEE7F11E0008F901000821
:100230002DE9F05F0546002092469B46884606461B
:10024000814640241BE0284641464746224600F0AE
:1002500041F853465A46C01A914110D311461846E8
:10026000224600F028F82D1A67EB01084F46224677
:100270000120002100F01FF817EB00094E41201E5D
:10028000A4F10104DFDC484631462A464346BDE876
:10029000F09FD2B201E000F8012B491EFBD270475B
:1002A0000022F6E710B513460A4604461946FFF742
:1002B000F0FF204610BD202A04DB203A00FA02F1AC
:1002C000002070479140C2F1200320FA03F3194344
:1002D00090407047202A04DB203A21FA02F00021E6
:1002E000704721FA02F3D040C2F120029140084346
:1002F00019467047064C074D06E0E06840F00103E0
:1003000094E8070098471034AC42F6D3FFF778FF23
:1003100074250008942500084A496FF0706210B5F2
:10032000D1F8043323F44033C1F80433D1F8043353
:1003300044682343C1F8043301684B6823F4807395
:100340004B60016803694C6844EA03234B60016811
:100350004B6823F040734B60016884684B6823430B
:100360004B6001688B6823F400638B600168C4688C
:100370008B6823438B60816AD14201688A6822F0CE
:1003800070628A6001680DD0836A8A681A438A6045
:1003900001688A6822F040528A600168C36A8A68EC
:1003A0001A4302E08A6822F040528A6001688A6833
:1003B00022F002028A60016882698B6843EA420285
:1003C0008A6090F820100029016811D01E4A4B68FD
:1003D00043F400634B6001684B6823F460434B6057
:1003E0000168446A4B6802EB443213434B6003E0FC
:1003F0004A6822F400624A600168144BCA6A22F417
:100400007002CA620168848BCA6A03EB04531A4300
:10041000CA6201688A6822F400728A60016890F8F2
:1004200030208B6843EA42228A6001688A6822F49D
:1004300080628A60016840698A6842EA8020886038
:1004400010BD00000020014000E0FFFF0000F0FFB1
:10045000FEE77047F8B50025009590F83C20012A8A
:100460001DD0012280F83C20604C0723D6070A6883
:10047000092A22D9B24220D007680A3A02EB420C7C
:10048000FA6803FA0CF39A43FA600A68A24208D1A8
:1004900002680B7AD76847EA0363D36022E0022040
:1004A000F8BD07680A3A8B6802EB4202D7F80CC025
:1004B000934043EA0C03FB6014E0076802EB42023E
:1004C000D7F810C093402CEA030CC7F810C003689B
:1004D0000F788A68D3F810C007EB4707BA4042EAA2
:1004E0000C021A614A681F23072A16D20768521E97
:1004F00002EB820C7A6B03FA0CF39A437A6302687C
:100500000F790B887F1ED2F834C09BB207EB8707A8
:10051000BB4043EA0C0353632DE007680D2A15D254
:10052000D21F02EB820C3A6B03FA0CF39A433A6344
:1005300002680F790B88FF1FD2F830C09BB207EB1F
:100540008707BB4043EA0C03136314E00D3A02EB48
:10055000820CFA6A03FA0CF39A43FA6202680F7982
:100560000B880D3FD2F82CC09BB207EB8707BB402E
:1005700043EA0C03D3621E4A0368934208D10B6816
:10058000B34205D1D2F8043323F44003C2F8043354
:100590000368934208D10B68122B05D1D2F80433BB
:1005A00043F48003C2F80433036893421AD10B6802
:1005B000A34201D0112B15D1D2F8043343F4000328
:1005C000C2F804330968A1420CD10A490A4A0968F1
:1005D000B1FBF2F101EB8101490000E0491E0091FD
:1005E0000029FBD180F83C500020F8BD120000101B
:1005F000002001401000002040420F0070B50400B0
:100600004FF0000503D0206C002610B107E0012058
:1006100070BD204600F01CF8666484F83C60206CD5
:10062000C00610D4206C20F4885040F002002064F2
:100630002046FFF771FE6664206C20F0020040F057
:100640000100206400E0012584F83C60284670BD6C
:1006500030B587B0044614216846FFF721FE1849DB
:10066000206888422AD11748016841F480710160EE
:10067000006800F48070059012481438016841F059
:1006800001010160016801F001010591016841F07B
:1006900002010160006803240025694600F00200A1
:1006A000059010208DE83100074800F023F80094F1
:1006B00069460648CDE9014500F01CF807B030BD99
:1006C0000020014044380240000002400004024083
:1006D00070B5044600F000F90546601C02D00448DD
:1006E0000078044400F0F8F8401BA042FAD370BD33
:1006F000040000202DE9F84F00224FF001094FF0CF
:10070000030A4FF00F0E00BF0B6809FA02F42340F2
:10071000A34270D14D68012D05D0022D03D0112DBB
:1007200001D0122D11D185685700CE680AFA07FC56
:1007300025EA0C05BE402E43866045680E79A54328
:10074000C6F3001696402E434660C56856008F6873
:100750000AFA06F4A543B7402F43C7604D68022D3F
:1007600001D0122D12D1D5080F694FEA427C00EB5F
:100770008505AB462D6A4FEADC6C0EFA0CF807FAD9
:100780000CF725EA08052F43CBF820700D79076890
:1007900005F00305A743B5403D4305604C68E40000
:1007A00074D53D4C256845F480452560246822F0C9
:1007B0000307960704F480440094384C360F27440E
:1007C000D7F80848DFF8D8C00EFA06F5604524EAE5
:1007D000050401D100252EE0324DA84201D10125AA
:1007E00029E0314DA84201D1022524E02F4DA84235
:1007F00002D103251FE049E02D4DA84201D1042577
:1008000019E02C4DA84201D1052514E02A4DA8423B
:1008100001D106250FE0294DA84201D107250AE0A4
:10082000274DA84201D1082505E0264DA84201D157
:10083000092500E00A25B540234E2543C7F808588E
:100840004D683468ED0324EA030400D51C431E4DB3
:1008500034602D1D4E682C68B60324EA030400D5CD
:100860001C43194E2C6008364D683468ED0224EAAA
:10087000030400D51C43144D34600C354E682C68BD
:10088000B60224EA030400D51C432C60521C102A33
:10089000FFF43AAFBDE8F88F443802400030014021
:1008A000000002400004024000080240000C024028
:1008B000001002400014024000180240001C0240D8
:1008C0000020024000240240003C01400AB1816146
:1008D00070470904FBE7000001488068704700008A
:1008E000040000200248816802781144816070474A
:1008F00004000020032010B500F060F8002000F094
:1009000005F800F023F8002010BD000070B50D4D73
:1009100004464FF47A700C4A29781268B0FBF1F063
:10092000B2FBF0F000F0DEFE48B9102C07D2002236
:100930002146501E00F022F800206C6070BD01209E
:1009400070BD000004000020100000200A4808B517
:10095000016841F080510160006800F08050009013
:100960000548001D016841F480410160006800F401
:100970008040009008BD0000403802400E4BF0B4AB
:100980001B680D46C3F30223C3F10706042E00D9EA
:100990000426191D072901D2002300E0DB1E0124D3
:1009A00004FA06F19C40491E2940641E99401440F7
:1009B0002143F0BC01F053BD0CED00E0064900F00E
:1009C000070210B54FF6FF040868044B204040EAC8
:1009D00002201843086010BD0CED00E00000FA058D
:1009E0002DE9F84F04460078DFF824944FF0000614
:1009F0003746C0070ED0D9F8001021F40001C9F81D
:100A00000010D9F80010626B1143C9F80010606B38
:100A100000B90126FE4D2068843500030ED5E16B38
:100A2000286820F4401008432860E06BB0F5801F70
:100A300001D010B102E0012600E0012720684FF448
:100A4000800BC0020CD5216C286820F440000843BC
:100A50002860206C584501D1012601E000B901272A
:100A60002068C10100D50126800666D5E8483830E7
:100A7000016841F0805101600068DFF898A300F040
:100A800080500090DAF8001041F48071CAF800102C
:100A9000FFF722FF804605E0FFF71EFFA0EB0800EE
:100AA00064287DD8DAF80000C005F5D5DFF860834A
:100AB00008F16808D8F8000010F440702AD0218EA0
:100AC00001F44071814225D0D8F80010D8F80020F8
:100AD00021F4407142F48032C8F80020D8F8002098
:100AE00022F48032C8F80020C8F80010D8F80000BE
:100AF000C0070FD0FFF7F0FE824607E0FFF7ECFEDD
:100B0000A0EB0A0141F288308142CAD8D8F800002F
:100B10008007F3D5206BC0F3012103297ED0D9F8DB
:100B2000001021F4F811C9F80010228ED8F8001036
:100B3000C2F30B021143C8F800102078C00607D595
:100B4000286820F0807028602868A16B084328601E
:100B50002188AF488830490405D5626E016821F4C8
:100B60004031114301602188090405D5A26E016856
:100B700021F44021114301602168C90305D5E26ECB
:100B8000016821F44011114301602168890305D5F2
:100B9000226F016821F4400111430160217800E0D7
:100BA00034E1490605D5626C016821F00301114367
:100BB00001602178090605D5A26C016821F00C01BD
:100BC000114301602188C90505D5E26C016821F057
:100BD0003001114301602188890505D5226D016826
:100BE00021F0C001114301602188490505D5626DDE
:100BF000016821F44071114301602188090505D580
:100C0000A26D016821F44061114301602188C9048B
:100C100007D5E26D016821F4405100E05FE0114327
:100C200001602188890405D5226E016821F44041C4
:100C3000114301602168490205D5A26F016821F0C6
:100C400080611143016021684FF0006A890209D573
:100C5000E26F016821F0006111430160E16F5145CD
:100C600000D1012721680A0700D50127490305D5CE
:100C7000626F016821F0407111430160216809022F
:100C800006D5D4F88020016821F08051114301601D
:100C90002168490106D5D4F88420016821F000516B
:100CA000114301602068000106D5D4F88810286837
:100CB00020F00070084328602068C00006D5D4F8F2
:100CC0008C10286820F0806008432860DFF8489185
:100CD000012E0ED02068B0F1007F0AD08FE04F4A7D
:100CE000D9F80030104023F4F8120243C9F800206C
:100CF0001BE7D9F800004E4620F08060C9F80000DC
:100D0000FFF7EAFD804605E0FFF7E6FDA0EB0800EF
:100D100064287BD830680001F6D421783C487C30C8
:100D2000C90712D0616B81B9237A62680168D0F873
:100D300000C09201C1F3014142EA0142CCF30361D8
:100D400042EA016141EA0371016021680A0303D5A7
:100D5000E26BB2F5801F04D0C9021AD5216C594547
:100D600017D16368016894F80CC002689B01C1F355
:100D7000014143EA0141C2F3027241EA0C6141EAD6
:100D8000027101602968626A21F01F01521E11433D
:100D900029602168C90110D5238A62680168D0F8EA
:100DA00000C09201C1F3036142EA034242EA0162D8
:100DB000CCF3027142EA01710160216889010CD50E
:100DC0006168228A237B94F808C0890141EA0241C4
:100DD00041EA036141EA0C7101603168B04641F0BB
:100DE00080613160FFF778FD064604E0FFF774FD8F
:100DF000801B64280AD8D8F800000001F6D5E7B3B4
:100E0000D9F800004E4620F0805009E07BE0000059
:100E1000083802400070004000380240FFFCFF0F1D
:100E2000C9F80000FFF758FD074604E0FFF754FD3E
:100E3000C01B642867D83068C0438000F6D521689D
:100E400035480A0301D5E26B1AB1C9021DD5216CE0
:100E5000D9B963690168277E02689B01C1F301412A
:100E600043EA0143C2F3027143EA076242EA0171B5
:100E7000016029686FF0FF0300E04BE0A26A21F4F3
:100E8000F85103EB0222114329602168890212D52F
:100E9000E16F51450FD1238C6269016807689201A7
:100EA000C1F3036142EA034242EA0162C7F30271FD
:100EB00042EA017101602178090716D5616902686B
:100EC000D0F800C08B01277FC2F30362CCF301414D
:100ED00043EA014141EA026141EA07710160286881
:100EE000E16A20F4403008432860306840F08050C8
:100EF0003060FFF7F1FC044608E000BFFFF7ECFCB0
:100F0000001B642802D90320BDE8F88F3068C04375
:100F10008000F3D40020F7E7883802402DE9F0473D
:100F200005000F4663D0444E306800F00F00B84211
:100F300009D2306820F00F0038433060306800F08C
:100F40000F00B84253D128683C4C810712D54007A6
:100F500003D5206840F4E05020602878000703D5CE
:100F6000206840F460402060A968206820F0F0000C
:100F7000084320602878C0072AD0304968680839BB
:100F8000012810D00968022810D0890700292EDA1C
:100F9000216821F0030101432160FFF79DFC804699
:100FA00041F288390DE009688903EFE78901EDE72F
:100FB000FFF792FCA0EB0801494502D90320BDE8E8
:100FC000F0876868216801F00C01B1EB800FEFD168
:100FD000306800F00F00B8420BD9306820F00F00E5
:100FE00038433060306800F00F00B84201D0012073
:100FF000E5E72878400705D5E968206820F4E05047
:10100000084320602878000706D52869216821F464
:10101000604141EAC000206000F038F82168084AC9
:10102000C1F30311515CC8400649086006480068D6
:10103000FFF76CFC0020C2E7003C02400838024089
:101040005C25000810000020080000200449054825
:1010500009680068044AC1F38221515CC8407047A6
:1010600008380240100000206C250008044905489B
:1010700009680068044AC1F34231515CC8407047B6
:1010800008380240100000206C250008154910B5F2
:101090001548096811F00C0213D01449042A0FD026
:1010A000082A0ED10F4C241F2268236802F03F0249
:1010B0005B0207D52068C0F38810A0FB010106E0A1
:1010C000084610BD2168C1F38811A1FB000100236F
:1010D000FFF7AEF82168C1F30141491C4900B0FB9C
:1010E000F1F010BD083802400024F40040787D0182
:1010F0002DE9F84F04004FF000076ED02078DFF89C
:101100007CA3AAF10408C007A8F104054CD0DAF8C2
:1011100000105046C1F38101012908D00068C0F3D6
:10112000810002280AD1D8F80000400206D52868BC
:10113000800339D560680028DFD035E06068B0F5FD
:10114000803F0BD010B1B0F5A02F11D0286820F44B
:1011500080302860286820F4802002E0286840F46D
:1011600080302860606890B1FFF7B6FB06460AE061
:10117000286840F480202860F0E700BFFFF7ACFB50
:10118000801B642872D828688003F7D50CE0FFF72D
:10119000A3FB064605E000BFFFF79EFB801B64280B
:1011A000F0D828688003F7D42078800742D5DAF891
:1011B0000010504611F00C0F08D00068C0F38100F9
:1011C00002280BD1D8F80000400207D42868800715
:1011D00018D5E068012800D114E04AE1E068002851
:1011E000286817D040F001002860FFF775FB06461D
:1011F00005E000BFFFF770FB801B0228C2D82868FB
:101200008007F7D52069296821F0F80141EAC0007C
:1012100028600FE020F001002860FFF75DFB064624
:1012200005E000BFFFF758FB801B02281ED8286886
:101230008007F7D42078000729D5904861696C3081
:1012400000298146016812D041F001010160FFF7D9
:1012500043FB064605E000BFFFF73EFB801B02286C
:1012600004D8D9F800008007F6D510E089E021F015
:1012700001010160FFF730FB064604E0FFF72CFB9D
:10128000801B02287DD8D9F800008007F6D420788A
:1012900040076BD5DFF8E49109F13809D9F800006F
:1012A000C0000BD4D9F8001041F08051C9F80010EB
:1012B000D9F80000012700F08050009070480168C4
:1012C000C90512D40168834641F480710160FFF7BB
:1012D00003FB064605E000BFFFF7FEFA801B64280B
:1012E0004FD8DBF80000C005F6D5644EA06868361C
:1012F00001280AD008B1052811D0306820F001007B
:101300003060306820F0040002E0306840F00100F6
:101310003060A068A0B1FFF7DFFA83460CE03068C8
:1013200040F004003060F0E7FFF7D6FAA0EB0B01C5
:1013300041F28830814268D830688007F4D50EE0E9
:10134000FFF7CAFA834607E0FFF7C6FAA0EB0B01E6
:1013500041F28830814258D830688007F4D42FB1E8
:10136000D9F8001021F08051C9F80010A069E0B34D
:10137000DAF80010C1F3810102294DD00228286853
:1013800000E042E020F08070286003D0FFF7A4FA6C
:1013900004463DE0FFF7A0FA064604E0FFF79CFA9A
:1013A000801B022831D828688001F7D4D4E90921AC
:1013B000DFF8D0C0D4E9070694F830304F0894F82D
:1013C0002C1030430CEB074444EA8212104340EAED
:1013D000016040EA0370C8F80000286840F080709F
:1013E0002860FFF779FA044605E044E0FFF774FA55
:1013F000001B022809D828688001F7D53BE000BF10
:10140000FFF76AFA001B022802D90320BDE8F88F13
:1014100028688001F4D42EE00128D8F8000028D0F4
:10142000E16900F480028A4223D1216A00F03F0280
:101430008A421ED1626A47F6C0710140B1EB821F39
:1014400017D1A16A4FF0FF3200F4403302EB510193
:10145000B3EB014F0DD194F82C1000F07062B2EB99
:10146000016F06D194F8301000F0E040B0EB017F3E
:1014700001D00120CAE70020C8E700000838024078
:10148000007000400000FFFF2DE9F047040005D088
:1014900094F85D000025A56218B107E00120BDE8C1
:1014A000F087204684F85C5000F050F8022284F85F
:1014B0005D204FF4E0632068016821F04001016085
:1014C000E068984201D9002101E04FF48051B0F565
:1014D000706F02D0984200D0A5624FF00109266BD0
:1014E0002EB9984201D9226301E0C4F83090D4E9C2
:1014F0000468D4E90102278B46EA0806A36A104370
:1015000007F4007830432668D4E907C240EA0800AF
:1015100040EA0C00CC460427104318433060D4F84E
:101520001880666B606AE26807EA184723683043F0
:101530003A431043084358602068C16921F40061B0
:10154000C161256684F85DC00020A8E7F0B587B0CA
:10155000074614216846FEF7A3FE574900243B685E
:101560000225DFF858C11039534A0326544805278D
:10157000634518D1136843F480431360126802F482
:10158000804205920A6842F002020A60096802ABD2
:1015900001F0020105914FF46041CDE9001583E8A7
:1015A000D00069462FE0DFF81CC163452FD11368D6
:1015B00043F400431360126802F4004205920A6883
:1015C00042F002020A600A6802F0020205920A680A
:1015D00042F004020A6009680722029401F0040143
:1015E00005910421CDE90015CDE903626946FFF7B5
:1015F00081F8062102944FF44060CDE90361CDE902
:10160000000531486946FFF775F807B0F0BD2A4874
:101610002E4A001D934215D1026842F40052026026
:10162000006800F400500590086840F01000086061
:101630000868694600F0100005906420CDE90005B7
:10164000234818E0234A934219D1026842F48012D9
:101650000260006800F480100590086840F02000E7
:1016600008600868694600F0200005904FF4186093
:10167000CDE90005184802AA82E8D000C3E7174A5E
:101680009342C2D1026842F400120260006800F482
:1016900000100590086840F0010008600868029496
:1016A00000F001000590E0200821CDE90361CDE9BB
:1016B00000050B486946A6E7403802400038004064
:1016C00000040240003C0040000802400034014099
:1016D000001002400050014000140240005401403C
:1016E00000000240401EB0F1807F10B501D3012000
:1016F00010BD4FF0E02460610F21601700F0AFFED5
:101700000020A0610721216110BD10B5040002D0A6
:10171000606F10B107E0012010BD002084F8700058
:10172000204600F025F8242060672068016821F039
:1017300001010160204600F0D3FC0128ECD0606A72
:1017400010B1204600F0E2FB2068416821F490418E
:1017500041602068816821F02A0181602068016869
:1017600041F0010101602046BDE8104000F032BCAC
:10177000F0B587B0044614216846FEF791FD28496C
:10178000002622680225274B103925480324082704
:101790009A4228D1026842F400220260006800F4F4
:1017A00000200590086840F480700860086800F424
:1017B00080700590086840F001000860086800F03B
:1017C00001000590481569468DE861001648CDE98D
:1017D0000347FEF78FFF012069468DE8610013483B
:1017E000CDE9034718E0124B9A4217D1026842F044
:1017F00000420260006800F000400590086840F078
:1018000010000860086869468DE8700000F010005C
:101810000394CDE904700748FEF76CFF07B0F0BDF4
:1018200040380240004C00400020024000000240CE
:10183000007C00400010024070B5836F202B4BD11C
:10184000B9B1B2B190F87030012B45D08368012650
:1018500080F870600024416535030466AB42A0F84F
:101860005820A0F85A204FF0FF0107D1026912B1A9
:1018700026E0012070BD40F2FF1121E04FF07F0211
:10188000E3B1B3F1805F1ED0A0F85C402221C467B1
:10189000816701688A6842F001028A608168A94212
:1018A00001D10169B1B10D49016680F8704000684D
:1018B000016841F490710160002070BD036933B983
:1018C000A0F85C10E2E7016909B13F21F8E7A0F850
:1018D0005C20DBE70249E7E7022070BD87200008B3
:1018E0002D200008084910B588420CD1074964230F
:1018F0000548012200F00CF8BDE810400349012220
:101900000148FFF799BF10BD5002002000000020E1
:101910002DE9F8430446406F1F4616460D46202821
:1019200050D1CDB1C6B194F8700001284AD0012041
:1019300084F8700021224FF00008C4F87C806267B0
:10194000FEF7CAFF8146A068A4F85060A4F8526070
:10195000B0F5805F03D004E00120BDE8F883206982
:1019600028B12E465FF0000584F8708010E0002654
:10197000FAE78021204600F01FFDB8B9C6B116F87D
:10198000010B21688862B4F85200401EA4F852008E
:10199000B4F852004B464FF0000200970028E8D1FF
:1019A0004FF04001204600F007FD38B10320D4E796
:1019B00035F8020B2168C0F30800E3E720206067D8
:1019C0000020CAE70220C8E770B5436F202B28D15A
:1019D000B1B1AAB190F87030012B22D086680124F1
:1019E00080F87040002343662125C164B6F5805F0E
:1019F000A0F85020A0F85220C367456702D003E04A
:101A0000012070BD016951B10749416680F870300D
:101A10000068016841F080010160002070BD034949
:101A2000F3E7022070BD00007D2300083D2300087D
:101A3000FEE700007FB512480024104A01250094FB
:101A4000019402940394C0E90024846004618461D9
:101A50000C4980F82040C0E90A14C561C46080F8D0
:101A600030404561FEF7CAFD04206946CDE9000516
:101A700003480294FEF7EEFC7FBD00000020014009
:101A8000140000200100000F2DE9F04F87B0142151
:101A90006846FEF705FC7A48016841F010010160D4
:101AA000016801F010010591016841F48071016045
:101AB000016801F480710591016841F02001016025
:101AC000016801F020010591016841F08001016089
:101AD000016801F080010591016841F00401016095
:101AE000016801F004010591016841F00101016004
:101AF000016801F001010591016841F002010160F6
:101B0000016801F002010591016841F40071016072
:101B1000016801F400710591016841F0080101605C
:101B200000684EF23C640022214600F00800059057
:101B30005448FEF7CBFE4FF4E045534800222946B7
:101B4000FEF7C4FE41F63267504800223946FEF7E0
:101B5000BDFEDFF83C9100220D214846FEF7B6FE9F
:101B6000DFF830A1002208215046FEF7AFFEDFF873
:101B700028B100220E215846FEF7A8FE4FF48056E9
:101B8000464800223146FEF7A1FE4FF4F85844487B
:101B900000224146FEF79AFE002000940124694687
:101BA000CDE9014003903748FEF7A4FD00200095E1
:101BB0006946CDE9014003903348FEF79BFD394D5E
:101BC00009206946CDE90005002002902F48FEF764
:101BD00091FD002000976946CDE9014003902B4814
:101BE000FEF788FD0D206946CDE900040020029033
:101BF00003904846FEF77EFD06206946CDE90005C4
:101C0000002002905046FEF775FD08206946CDE998
:101C100000040020029003905046FEF76BFD0E205A
:101C20006946CDE900040020029003905846FEF773
:101C300061FD002000966946CDE901501148FEF78C
:101C400059FD00206946CDE90064CDE90200134842
:101C5000FEF750FD00211248CDE90084CDE90211C4
:101C60006946FEF747FD0021E02000900648CDE9D7
:101C700001516946FEF73EFD07B0BDE8F08F000058
:101C8000303802400014024000200240001C024094
:101C9000000802400000024000240240000402400C
:101CA000000C0240000011100E484FF4407330B495
:101CB0000B4D00214FF48274C0E902136A150161D3
:101CC000C0E900540723C0E90512C161082401627C
:101CD0004162C0E90A13C0E90C1430BCFFF7D4BB61
:101CE000003800405C0000200E484FF4407330B4D0
:101CF0000B4D00214FF48274C0E902136A15016193
:101D0000C0E900540723C0E90512C161082401623B
:101D10004162C0E90A13C0E90C1430BCFFF7B4BB40
:101D2000003C0040C00000200E484FF4407330B427
:101D30000B4D00214FF48274C0E902136A15016152
:101D4000C0E900540723C0E90512C16108240162FB
:101D50004162C0E90A13C0E90C1430BCFFF794BB20
:101D600000340140240100200E484FF4407330B489
:101D70000B4D00214FF48274C0E902136A15016112
:101D8000C0E900540723C0E90512C16108240162BB
:101D90004162C0E90A13C0E90C1430BCFFF774BB00
:101DA00000500140880100200E484FF4407330B4C9
:101DB0000B4D00214FF48274C0E902136A150161D2
:101DC000C0E900540723C0E90512C161082401627B
:101DD0004162C0E90A13C0E90C1430BCFFF754BBE0
:101DE00000540140EC0100200D48002110B50B4CBF
:101DF0000C224FF4E1330460C0E90131C160C0E955
:101E000004128161C16101624162FFF77EFCBDE89D
:101E10001040044901220248FFF7D6BD004C0040A3
:101E200050020020000000200A48002130B4084C75
:101E30000C224FF4E1330460C0E90131C160C0E914
:101E400004128161C1610162416230BCFFF75DBC77
:101E5000007C0040D0020020FEE7704770477047CA
:101E6000FEF740BD10B5B8B0342124A8FEF718FA2B
:101E7000142131A8FEF714FA90216846FEF710FAF3
:101E80001948016841F080510160006800F08050FD
:101E900036901648016821F4404141F480410160C8
:101EA000006802210122249100F440403690102065
:101EB00000242A94CDE9272024A8FFF719F90F2040
:101EC000CDE931040021339431A834943594FFF7DF
:101ED00025F84FF408501494189400906846FEF7C3
:101EE0007FFD38B010BD0000403802400070004057
:101EF00005484FF000610368034A43F47003036030
:101F0000803A11607047000088ED00E090F82410DE
:101F1000C90706D00168836A4A6822F400321A436E
:101F20004A6090F82410890706D50168C36A4A6898
:101F300022F480321A434A6090F82410490706D5EB
:101F40000168036B4A6822F480221A434A6090F8C1
:101F50002410090706D50168436B4A6822F4004241
:101F60001A434A6090F82410C90606D50168836BAD
:101F70008A6822F480521A438A6090F824108906F5
:101F800006D50168C36B8A6822F400521A438A603E
:101F900090F82410490611D50168036C4A6822F4B0
:101FA00080121A434A60016CB1F5801F06D10168A6
:101FB000436C4A6822F4C0021A434A6090F8241025
:101FC000090606D50168826C486820F40020104399
:101FD00048607047F8B500260446C667FEF77CFCEB
:101FE000054620686FF07E470068000708D500228C
:101FF0002B464FF400112046009700F0DDF960B940
:102000002068006840070AD500222B464FF4800163
:102010002046009700F0D0F908B10320F8BD202039
:10202000606784F87060A0670020F8BD10B5816F0C
:10203000B0F85C202229016804D0886940F00800CB
:10204000886110BD496A436D11401980416D891C3A
:102050004165B0F85A10491EA0F85A10B0F85A104D
:102060000029EED10168202200230C6824F490742A
:102070000C6001688C6824F001048C608267036640
:10208000FFF730FC10BD10B5816FB0F85C2022293D
:10209000016804D0886940F00800886110BD496A71
:1020A000436D11401970416D491C4165B0F85A10DB
:1020B000491EA0F85A10B0F85A100029EED1016854
:1020C000202200230C6824F490740C6001688C6852
:1020D00024F001048C6082670366FFF703FC10BDE7
:1020E0002DE9F04104468068DFF820C2884F23685C
:1020F000D4E90452E16928431E6800250A43854952
:10210000104306EA0C0606431E604FF400422068A6
:10211000E668436823F44053334343602368A66969
:10212000206AD3F808C030432CF4306606439E6022
:102130002068B8420AD1086810F0030052D0012884
:102140007BD002287AD003286ED186E0724B984269
:102150000AD1086810F00C0079D004287BD0082838
:1021600077D00C2860D178E06C4B98420AD108688F
:1021700010F030006BD010286DD0202869D03028A6
:1021800052D16AE0664B98420AD1086810F0C0004C
:102190005DD040285FD080285BD0C02844D15CE06F
:1021A000604B98420DD1086810F440704FD0B0F5E4
:1021B000807F50D0B0F5007F4BD0B0F5407F33D159
:1021C0004BE0594B98420FD1086810F4406009D099
:1021D000B0F5806F3FD0B0F5006F3AD0B0F5406FEA
:1021E00022D13AE0012120E0504B98420DD10868FD
:1021F00010F440502BD0B0F5805F2CD0B0F5005FCC
:1022000027D0B0F5405F0FD127E0494B98420BD162
:10221000086810F440401AD0B0F5804F1BD09042AF
:1022200017D0B0F5404F18D01021E0694FF6EF7687
:1022300090423AD1092961D202E00CE009E006E0BF
:10224000DFE801F00D10255C285C5C5C2B000021B0
:10225000EBE70221E9E70421E7E70821E5E7FEF7DC
:10226000F5FE01E0FEF702FF6168400000EB51005F
:10227000B0FBF1F080B2A0F11001B1423ED84FF6B0
:10228000F0732168C0F342021840104326E0294948
:10229000606805E0FEF7FAFEE6E760684FF480311B
:1022A00001EB5001B1FBF0F0E4E7092926D2DFE8A9
:1022B00001F0050817251C2525251F00FEF7C6FE81
:1022C00001E0FEF7D3FE616800EB5100B0FBF1F0D6
:1022D00080B2A0F11001B14210D82168C8600EE0B0
:1022E0006068154901EB500105E0FEF7CFFEEAE713
:1022F000606802EB5001B1FBF0F0E9E70125002036
:10230000206660662846BDE8F0810000F369FFEFB3
:102310000010014090380240004400400048004056
:10232000004C004000500040001401400078004084
:10233000007C00400048E8010024F400416F21299E
:1023400010D1B0F8521071B1C16C02680988C1F3A4
:1023500008019162C16C891CC164B0F85210491E19
:10236000A0F85210704701680A6822F080020A60E3
:102370000068016841F0400101607047416F212908
:102380000ED1B0F8521061B1C16C02680978916247
:10239000C16C491CC164B0F85210491EA0F852101B
:1023A000704701680A6822F080020A6000680168CC
:1023B00041F04001016070472DE9F0479A46174609
:1023C0000E460446089D4FF000094FF0200839E002
:1023D000681C37D0FEF780FAA0EB0A00A84222D88A
:1023E0000DB32068016849072CD5C069C0430005BA
:1023F00028D423684FF40061196221680B6823F424
:10240000D0730B6021688B6823F001038B60C4F8E4
:102410007480C4F87880C4F87C8000BF032084F8FE
:102420007090BDE8F08721680B6823F4D0730B60CF
:1024300021688B6823F001038B60C4F87480C4F8B2
:102440007880EBE72068C06936EA000004D00020FD
:10245000B842BDD00020E4E70120F9E7FEE7090714
:1024600000284FEA116104DB00F1E02080F800143D
:10247000704700F00F0000F1E02080F8141D704755
:1024800002E008C8121F08C1002AFAD1704770473D
:10249000002001E001C1121F002AFBD1704700009B
:1024A00086B0FEF727FAFFF7DDFCFFF79DFC274813
:1024B000FFF75EF90124264E20206946002503958A
:1024C000CDE900043046FEF715F910206946CDE944
:1024D000000430460395FEF70DF908206946CDE962
:1024E000000430460395FEF705F9A0036946CDE9DF
:1024F000000418480395FEF7FDF8FFF7C5FAFFF74B
:1025000099FAFFF7D1FBFFF7EFFBFFF70DFCFFF7A1
:102510002BFCFFF749FCFFF767FCFFF785FC0E4932
:1025200001220A48FFF788F9012230462021FEF7F0
:10253000CDF96420FEF7CCF8002230462021FEF7CA
:10254000C5F96420FEF7C4F8EEE700005002002051
:1025500000140240002002400000002000000000A3
:102560000000000001020304060708090000000043
:10257000010203049425000800000020140000005C
:1025800080240008A8250008140000203C07000053
:10259000902400084100000001000000100000002D
:0825A000000000000024F4001B
:04000005080001F9F5
:00000001FF
