:020000040800F2
:1000000000400020F92C0008B92C0008BB2C000887
:10001000BD2C0008BF2C0008C12C00080000000007
:10002000000000000000000000000000211E000889
:10003000C32C000800000000B11E0008151F0008B6
:10004000492D0008492D0008492D0008492D0008B8
:10005000492D0008492D0008492D0008492D0008A8
:10006000492D0008492D0008492D0008492D000898
:10007000492D0008492D0008492D0008492D000888
:10008000492D0008492D0008492D0008492D000878
:10009000492D0008492D0008492D0008492D000868
:1000A000492D0008C52C0008492D0008492D0008DD
:1000B000492D00080000000000000000492D000844
:1000C000492D0008492D0008492D000800000000B6
:1000D000492D0008492D0008492D0008492D000828
:1000E000492D0008492D0008492D00080000000096
:1000F0000000000000000000000000000000000000
:10010000000000000000000000000000D12C0008EA
:100110000000000000000000492D00080000000061
:1001200000000000000000000000000000000000CF
:1001300000000000000000000000000000000000BF
:10014000492D0008492D00080000000000000000B3
:10015000000000000000000000000000000000009F
:10016000492D0008492D0008492D0008492D000897
:10017000492D000800000000000000000000000001
:0801800000000000492D0008F9
:1001900010B5054C237833B9044B13B10448AFF3C1
:1001A00000800123237010BD10000020000000001B
:1001B000A42D000808B5034B1BB103490348AFF356
:1001C000008008BD0000000014000020A42D0008DD
:1001D000074A08B5136843F010031360032000F0CA
:1001E0001BF8002002F02CFD02F09EFC002008BD50
:1001F00000200240034A044B11681B780B44136033
:10020000704700BFC80F002000000020014B186895
:10021000704700BFC80F0020C31E042B10B5044652
:1002200003D9AC21094802F07DFC094AD36823F4C4
:10023000E0631B041B0C43F0BF63240243F4003350
:1002400004F4E0641C43D46010BD00BFE02D00083E
:1002500000ED00E00F2A70B504460E46154603D99E
:10026000C4211A4802F05EFC0F2E03D9C52117489D
:1002700002F058FC164BD968C1F30221C1F1070303
:100280000A1D042B28BF04230120062A8CBF033932
:10029000002100FA03F2013A8840324001388A40D6
:1002A0000540002C42EA05024FEA0212ADBF04F1FC
:1002B000604404F00F04074B04F56144B5BFD2B2AB
:1002C000D2B21A5584F8002370BD00BFE02D00089B
:1002D00000ED00E014ED00E0002803DAD821064824
:1002E00002F020BC4209012300F01F0003FA00F0D5
:1002F000024B43F822007047E02D000800E100E0C7
:1003000090F82120022A10B503D004228263012034
:1003100010BD0268C46B1168436B21F00E011160BF
:10032000116821F001011160026C012101FA02F251
:100330006260002480F8211080F8204013B19847B3
:10034000204610BD184610BD2DE9F04FB0F1904F7A
:1003500085B004460D4612D08F4B98420FD003F55E
:10036000806398420BD003F58063984207D003F571
:100370000063984203D0BA21884802F0D3FB2B686F
:100380009AB212B11B0C1B041BB1BB21834802F0B3
:10039000C9FB6B68032B17D9A3F11102012A13D9EA
:1003A0007F4923F400128A420ED001F580118B425E
:1003B0000AD0A1F570218A4206D07A4A934203D02E
:1003C000BC21764802F0AEFBAB68022B03D9BD21FD
:1003D000724802F0A7FB744FDFF8D09100262B681B
:1003E00033FA06F202D105B0BDE8F08F4FF0010AF2
:1003F0000AFA06FA13EA0A0800F0C5806B6823F0CF
:100400001003022B2DD1B4F1904F12D0624B9C42BD
:100410000FD003F580639C420BD003F580639C42B0
:1004200007D003F500639C4203D0CC215B4802F067
:1004300079FB2B690C2B05D90F2B03D0CD21574805
:1004400002F070FBF20804EB820206F00703990049
:10045000106A0F238B4020EA03002B698B40034373
:1004600013626B68206872004FF0030B0BFA02FBFB
:1004700003F003016FEA0B0B23F0100300EA0B00FB
:100480009140013B0143012B21601BD8EB68012BFC
:1004900007D9032B05D0E1214048019202F042FB2D
:1004A000019AA168EB680BEA010193400B43A3603A
:1004B000636823EA0A0A6B68C3F30013B34043EA94
:1004C0000A036360E36868680BEA030BAB6803FA2E
:1004D00002F242EA0B02E260C20054D5BB6943F06B
:1004E0000103BB61BB6926F0030103F0010301F1C5
:1004F0008041039301F58031039B8A6806F0030372
:100500004FF00F0C4FEA830E0CFA0EF3B4F1904F3C
:1005100022EA030C39D0204B9C4238D003F580638B
:100520009C4236D003F580639C4214BF052303230D
:1005300003FA0EF343EA0C038B60D9F800206FEA4C
:100540000801C30354BF0A4048EA0202C9F8002068
:10055000D9F80420830354BF0A4048EA0202C9F8CC
:100560000420D9F80820C30254BF0A4048EA020216
:10057000C9F80820D9F80C30820254BF0B4048EA71
:100580000303C9F80C30013629E70023D0E7012323
:10059000CEE70223CCE700BF000400481B2E000872
:1005A0000000111000002210001002400004014061
:1005B00070B5054616460C4621B940F2A711084809
:1005C00002F0B0FA012E06D94FF4D471044802F0BB
:1005D000A9FAAC6170BD002EFBD1AC6270BD00BF4A
:1005E0001B2E000838B505460C4621B940F2BD1156
:1005F000044802F097FA6B69234218BF2404AC61E7
:1006000038BD00BF1B2E00082DE9F347044608B98A
:1006100001207CE0036833B1190704D140F24B118B
:10062000BF4802F07FFA2368DA0719D423689B07D2
:1006300000F19B8023681D0700F11C812368580787
:1006400000F17481E369022B04D940F23A21B448E5
:1006500002F068FAE069002840F00682002056E0C7
:10066000636833F4803207D0B3F5A02F04D040F292
:100670005111AB4802F056FAAA4D6B6803F00C0317
:10068000042B07D06B6803F00C03082B16D16B68A2
:10069000DF0313D54FF4003393FAA3F2296893FADA
:1006A000A3F3B3FA83F303F01F03012202FA03F367
:1006B0000B42BBD06368002BB8D1A9E76268B2F5E2
:1006C000803F27D12B6843F480332B60EB6AA1680D
:1006D00023F00F030B43EB6262B3FFF797FD4FF478
:1006E00000368046012796FAA6F32A6896FAA6F302
:1006F000B3FA83F303F01F0307FA03F3134295D110
:10070000FFF784FDA0EB08006428ECD9032002B0B9
:10071000BDE8F0872B6832B923F480332B602B6857
:1007200023F48023D1E7B2F5A02FF5D143F4802341
:100730002B60C7E7FFF76AFD4FF4003680460127BC
:1007400096FAA6F32A6896FAA6F3B3FA83F303F0AF
:100750001F0307FA03F313423FF468AFFFF756FD98
:10076000A0EB08006428EBD9D0E72369012B04D95A
:1007700040F289116A4802F0D5F963691F2B04D948
:100780004FF4C571664802F0CDF9664D6B6813F001
:100790000C0F07D06B6803F00C03082B22D16B6899
:1007A000DE031FD4022393FAA3F2296893FAA3F37A
:1007B000B3FA83F303F01F03012202FA03F30B429F
:1007C00003D0236993427FF423AF2968F82393FA77
:1007D000A3F3B3FA83F26369934021F0F802134361
:1007E0002B6027E7226901260AB396FAA6F3B3FA2B
:1007F00083F303F1845303F584139B0002271E60E7
:10080000FFF704FD804697FAA7F32A6897FAA7F343
:10081000B3FA83F303F01F0306FA03F31342D4D1B0
:10082000FFF7F4FCA0EB08000228ECD96EE796FA7B
:10083000A6F3B3FA83F303F1845303F584139B0007
:1008400002271A60FFF7E2FC804697FAA7F32A68AE
:1008500097FAA7F3B3FA83F303F01F0306FA03F33F
:1008600013423FF4E7AEFFF7D1FCA0EB08000228EB
:10087000EBD94BE7A369012B04D94FF4E571284864
:1008800002F050F9A269274E274901251AB395FABB
:10089000A5F3B3FA83F30B449B0002271D60FFF717
:1008A000B5FC804697FAA7F397FAA7F397FAA7F350
:1008B000726A97FAA7F3B3FA83F303F01F0305FAFA
:1008C00003F313427FF4BAAEFFF7A0FCA0EB0800DD
:1008D0000228E7D91AE795FAA5F3B3FA83F30B4494
:1008E0009B0002271A60FFF791FC804697FAA7F356
:1008F00097FAA7F397FAA7F3726A97FAA7F3B3FAEE
:1009000083F303F01F0305FA03F313423FF496AE9B
:10091000FFF77CFCA0EB08000228E7D9F6E600BF51
:10092000542E00080010024020819010E368012B33
:1009300006D9052B04D04FF4FB71A74802F0F2F85A
:10094000A64DEB69D90034D4EB6943F08053EB61D9
:10095000EB6903F080530193019B0126A04F3B6894
:10096000DA0528D5E368012B36D12B6A43F0010361
:100970002B62FFF74BFC02278246B9464FF0010875
:1009800097FAA7F397FAA7F3002B65D02A6A99FA8A
:10099000A9F3B3FA83F303F01F0308FA03F3134236
:1009A00051D0002E3FF44EAEEB6923F08053EB6143
:1009B00048E60026D2E73B6843F480733B60FFF7CC
:1009C00025FC80463B68DB05CCD4FFF71FFCA0EB81
:1009D00008006428F6D999E63BBB2B6A23F0010393
:1009E0002B622B6A23F004032B62FFF70FFC022714
:1009F0008246B9464FF0010897FAA7F397FAA7F392
:100A000073B32A6A99FAA9F3B3FA83F303F01F03C5
:100A100008FA03F31342C4D0FFF7F8FB41F288331E
:100A2000A0EB0A009842E7D970E6052B2B6A03D1A8
:100A300043F004032B6298E723F001032B622B6A37
:100A400023F0040394E7FFF7E1FB41F28833A0EBC6
:100A50000A00984294D959E697FAA7F36A6A96E78A
:100A600097FAA7F36A6ACDE75C4B5A6802F00C026A
:100A7000082A1D4600F09E80022874D1236A33F4B0
:100A8000803304D040F24321534802F04BF8636AAC
:100A900033F4402223F4802110D0B2F5801F0DD012
:100AA000B2F5001F0AD0B1F5401F07D0B3F5601FA3
:100AB00004D04FF41171484802F034F84FF08073BD
:100AC00093FAA3F3B3FA83F303F1845303F5841386
:100AD0009B0000221A60FFF799FB4FF000778046D9
:100AE000012697FAA7F32A6897FAA7F3B3FA83F3D4
:100AF00003F01F0306FA03F313422DD16A68636AF9
:100B0000216A22F474120B4313436B604FF080731D
:100B100093FAA3F3B3FA83F303F1845303F5841335
:100B20009B004FF000741E60FFF770FB0126074624
:100B300094FAA4F32A6894FAA4F3B3FA83F303F0C3
:100B40001F0306FA03F313427FF488ADFFF75EFB41
:100B5000C01B0228ECD9D9E5FFF758FBA0EB080031
:100B60000228BED9D2E54FF0807393FAA3F3B3FA0B
:100B700083F303F1845303F584139B0000221A606E
:100B8000FFF744FB4FF000740746012694FAA4F3E4
:100B90002A6894FAA4F3B3FA83F303F01F0306FA66
:100BA00003F313423FF45AADFFF730FBC01B02289A
:100BB000ECD9ABE501283FF4AAAD5868236A00F4EC
:100BC00080329A427FF424AD636A00F47010C01A38
:100BD00018BF01209BE500BF542E00080010024002
:100BE0000070004010B5134C616801F00C03082B35
:100BF0001ED14FF4701393FAA3F301F47012B3FAF9
:100C000083F322FA03F30C4AD05CE36A0F2292FAD0
:100C1000A2F2B2FA82F203F00F03D340074AD25C89
:100C2000CB034ABF064B074BB3FBF2F3584310BD4F
:100C3000034810BD001002408C2E00089C2E0008B6
:100C400000127A0000093D002DE9F0410D460446EE
:100C500010B90120BDE8F0810368180704D140F203
:100C6000C321764801F05EFF022D04D94FF43171A3
:100C7000724801F057FF724A136803F007039D4260
:100C800044D8236899074CD42368DA0768D46C4A9F
:100C9000136803F007039D42C0F0AB802368694DE1
:100CA00013F0040F40F0B18023681B0717D52369A8
:100CB00033F480620CD023F40072B2F5A06F07D039
:100CC000B3F5C06F04D040F225315C4801F02AFF33
:100CD0006B68226923F4605343EAC2036B60FFF739
:100CE00081FF6B68F02292FAA2F2B2FA82F203F06C
:100CF000F003D340544AD35CD840544B1860544B53
:100D0000186801F09DFF0020BDE8F081136823F012
:100D100007032B431360136803F007039D4298D128
:100D2000AFE7A36833F0800212D023F02002902AAC
:100D30000ED023F04002A02A0AD023F01002C02ACD
:100D400006D0F02B04D040F2DB213C4801F0EAFE53
:100D50003C4AA168536823F0F0030B43536093E7C8
:100D60006368022B04D940F2E221344801F0DAFE34
:100D70006268344E012A29D14FF4003393FAA3F16B
:100D8000316893FAA3F3B3FA83F303F01F0302FA73
:100D900003F30B423FF45DAF736823F003031A4380
:100DA0007260FFF733FA41F2883807467368626869
:100DB00003F00C03B3EB820F3FF469AFFFF726FAA1
:100DC000C01B4045F2D90320BDE8F081022A0CBFC8
:100DD0004FF00073022393FAA3F1306893FAA3F360
:100DE000B3FA83F303F01F03012101FA03F3034273
:100DF000D0E7136823F007032B431360136803F055
:100E000007039D427FF425AF48E7E36833F480622F
:100E10000CD023F40072B2F5A06F07D0B3F5C06F09
:100E200004D040F21E31054801F07CFE6B68E26898
:100E300023F4E06313436B6036E700BF542E0008D1
:100E400000200240001002406A2F00080C00002021
:100E500004000020084B4FF4E0625B6892FAA2F2B3
:100E6000B2FA82F203F4E063D340044AD35C044A4A
:100E70001068D840704700BF001002407A2F000869
:100E80000C000020084B4FF460525B6892FAA2F20B
:100E9000B2FA82F203F46053D340044AD35C044AAA
:100EA0001068D840704700BF001002407A2F000839
:100EB0000C00002038B50D46044620B940F28441AC
:100EC000114801F02FFE25B940F285410E4801F08E
:100ED00029FE0F2323600D4B5A6802F00302626063
:100EE0005A6802F0F002A2605A6802F4E062E2601E
:100EF0005B68DB0803F4E0632361054B1B6803F0C8
:100F000007032B6038BD00BF542E000800100240BC
:100F10000020024003685A6822F0E0025A604268EA
:100F2000B2F5827F0AD18268B2F5004F02D0B2F5E5
:100F3000806F03D11A6822F040021A60826AB2F50B
:100F4000005F07D11A6822F400521A601A6842F44E
:100F500000521A60012380F85D30002380F85C3075
:100F60000320704770B504460D46164623689868FE
:100F700010F0800000D170BD6A1CF8D0FFF746F970
:100F8000801B8542F2D82046BDE87040FFF7C2BF03
:100F9000F8B505460C4616461F4629688868204065
:100FA00000D1F8BDB4F5C06F08BF0B7B731CF5D042
:100FB000FFF72CF9C01B8642EFD82846BDE8F84061
:100FC000FFF7A8BF70B513460D4616460A464FF404
:100FD000C0510446FFF7DCFF28B1236E43F0200325
:100FE000236603200FE0324629462046FFF7BAFF6A
:100FF0000028F2D133462A464FF4C0612046FFF75D
:10100000C7FF0028E9D170BD70B50446002800F084
:10101000D58003686A4A934208D002F58062934201
:1010200004D040F24711674801F07CFD63683BB192
:10103000B3F5827F04D04FF4A471624801F072FDD1
:10104000A36833F4806207D0B3F5004F04D040F2B8
:1010500049115C4801F066FDE368B3F5706F18D084
:1010600023F44072B2F5006F13D023F40062B2F59E
:10107000C06F0ED023F41062B2F5806F09D023F454
:101080008063B3F5407F04D04FF4A5714D4801F063
:1010900049FDA36933F4007207D0B3F5802F04D063
:1010A00040F24B11474801F03DFD636B33F00803FC
:1010B00004D04FF4A671434801F034FDE36933F0E6
:1010C000180306D0202B04D040F24D113D4801F00A
:1010D00029FD236A33F0800304D04FF4A771394807
:1010E00001F020FD636A33F0100304D040F24F1189
:1010F000344801F017FD636A83B9236933F00203B2
:1011000004D04FF4A9712F4801F00CFD6369012B45
:1011100004D940F253112B4801F004FD0023A362CF
:1011200094F85D3003F0FF0223B984F85C20204678
:1011300001F01AFD0223216884F85D300B68E26833
:1011400023F04003B2F5E06F0B604FF0000332D99B
:101150001846B2F5706F18BFA362236B2BB9B2F5B6
:10116000E06F8CBF022301232363A6686368A5692F
:1011700033432669334366693343E6693343266A5A
:101180003343A66A334305F4007633430B60636A46
:101190001A43636B2D0C1A4305F004052A430243DE
:1011A0004A60CB6923F40063CB61002001232066F1
:1011B00084F85D3070BD4FF48050CCE7012070BDE5
:1011C00000380040AC2E0008836833F4004370B54B
:1011D00004460E46154604D04FF4BC61224801F087
:1011E000A1FC94F85C30012B3CD0012084F85C0019
:1011F000002E2FD0002D2DD094F85D3083422DD1BC
:10120000032384F85D30002323662364E587A4F874
:101210004430A4F84630E364E368A663B3F5E06FB6
:101220008CBF124B124B2365A368A587B3F5004F03
:10123000236802BF1A6842F480421A605A6842F07A
:10124000A0025A60186810F0400009D11A6842F0F4
:1012500040021A60002384F85C3070BD0220F9E778
:101260000020F7E7022070BDAC2E0008ED12000848
:10127000CB1200087047704713B50446FEF7C6FF4F
:101280002268536823F0A00353606421024620467D
:10129000FFF798FE18B1236E43F020032366A3687E
:1012A00033B901932368DA6801929B680193019B2B
:1012B000012384F85D30236E20461BB1FFF7DBFF6E
:1012C00002B010BDFFF7D6FFFAE7816B026809781C
:1012D0001173826B01328263C28F013A92B2C2876C
:1012E000C38F9BB20BB9FFF7C7BF7047826B016812
:1012F00010B432F8024BCC608263C28F013A92B2D2
:10130000C287C38F9BB21BB95DF8044BFFF7B4BF14
:101310005DF8044B70470000036830B559689A685F
:1013200002F04105012D85B0044605D14D0603D5D7
:10133000C36C984705B030BD950704D5080602D5A3
:10134000236D2046F5E712F4B07FF3D08D06F1D57A
:1013500050060FD594F85D0003284FF000054CD0DF
:10136000206E40F0040020660095D86800909868D0
:101370000090009895060CD5206E40F00100206684
:101380000020029098680290186820F040001860D1
:101390000298D00508D5226E42F00802226600228B
:1013A00003929A680392039A226E002AC2D05A6866
:1013B00022F0E0025A60012284F85D208A0723D0DF
:1013C0005A68A06D22F003025A6040B1104B43638B
:1013D000FEF796FF18B1236E43F040032366606D5D
:1013E0000028A7D00A4B4363FEF78AFF0028A1D04C
:1013F000236E43F0400323669CE70195DA6801926F
:101400009B680193019B95E72046FFF734FF91E726
:101410001514000808B5406A0023A0F84630C387B9
:10142000FFF729FF08BD70470368184A934210B5BB
:10143000044617D0B3F1804F14D0A2F58E329342F8
:1014400010D002F5983293420CD002F5806293429C
:1014500008D002F58062934204D04FF4E0710C484A
:1014600001F060FB2368DA6842F00102DA609968F3
:10147000084A0A40062A06D0B2F5803F1EBF1A6805
:1014800042F001021A60002010BD00BF002C014094
:10149000E42E00080700010070477047704770474E
:1014A00003681A69910710B504460FD5DA689207E8
:1014B0000CD56FF002021A619B690122990702772D
:1014C00000F08580FFF7E9FF0023237723681A697E
:1014D000520710D5DA6850070DD56FF004021A6173
:1014E0009B69022213F4407F2277204675D0FFF7D4
:1014F000D4FF0023237723681A6911070FD5DA6810
:1015000012070CD56FF008021A61DB6904229B07F1
:101510002277204667D0FFF7C0FF00232377236898
:101520001A69D00610D5DA68D1060DD56FF0100211
:101530001A61DB69082213F4407F2277204658D0D5
:10154000FFF7ABFF0023237723681A69D20708D57A
:10155000DA68D00705D56FF001021A61204601F064
:10156000D7FA23681A69110608D5DA68120605D574
:101570006FF080021A61204600F0E5F823681A69CE
:10158000D00508D5DA68110605D56FF480721A61A6
:10159000204600F0D9F823681A69520608D5DA689F
:1015A000500605D56FF040021A612046FFF777FF1D
:1015B00023681A69910622D5DA6892061FD56FF062
:1015C000200220461A61BDE8104000F0BBB8FFF7CA
:1015D00063FF2046FFF762FF76E7FFF75DFF2046D7
:1015E000FFF75CFF85E7FFF757FF2046FFF756FF41
:1015F00093E7FFF751FF2046FFF750FFA2E710BD2A
:101600001E4A0368904210B502D0B0F1804F09D154
:101610004C6823F07003904243EA04030DD0B0F10C
:10162000804F0AD0164A904207D002F5806290425D
:1016300003D002F58062904203D1CA6823F440735C
:1016400013434A6923F08003134303608B68C3622A
:101650000B688362094B98420BD003F5A053984264
:1016600007D003F58063984203D003F58063984266
:1016700001D10B6903630123436110BD002C0140BC
:101680000040014010B50446002855D003682B4A9D
:10169000934217D0B3F1804F14D0A2F58E3293420B
:1016A00010D002F5983293420CD002F5806293423A
:1016B00008D002F58062934204D040F2191120480C
:1016C00001F030FAA36833F010020AD023F0400290
:1016D000202A06D0402B04D04FF48D71184801F019
:1016E00021FA236933F4807207D0B3F5007F04D068
:1016F00040F21B11124801F015FAA36933F0800380
:1017000004D04FF48E710E4801F00CFA94F83D307D
:1017100003F0FF0223B984F83C202046FFF783FE44
:10172000022384F83D302068211DFFF769FF012363
:1017300084F83D30002010BD012010BD002C014078
:10174000E42E0008704770477047000038B54268C3
:101750007F4B9A42044604D940F6A2217D4801F00D
:10176000E1F9A368B3F1805F07D033F4805304D06C
:1017700040F6A321774801F0D5F9E36833F44053EC
:1017800004D040F6A421734801F0CCF9236A33F465
:10179000006304D040F6A5216E4801F0C3F9236927
:1017A00033F4806207D0B3F5C06F04D040F6A721B0
:1017B000684801F0B7F9636933F00C0200D123B92E
:1017C00040F6A821634801F0ADF9A36933F44073F2
:1017D00004D040F6A9215F4801F0A4F9E36933F48D
:1017E000004304D040F6AA215A4801F09BF9206931
:1017F000A2682368E1691D68024360690243564894
:101800000A43284002431A605A68E068256A22F4B5
:10181000405202435A609868A26920F430602A431B
:1018200002439A604D4A934211D14D4B4D4A1B6B76
:1018300003F00303B1F5004FD35C24D0082B20D86C
:10184000DFE803F05A6C6F1F781F1F1F7B00464AAA
:10185000934203D002F58062934273D1B1F5004FF9
:101860004AD1FFF7F7FA61684A0802EB4003B3FB7D
:10187000F1F39BB20020A3F110014FF6EF729142F9
:101880002FD9012034E0082B28D801A252F823F0E8
:1018900063180008B5180008BB180008DD18000818
:1018A000CD180008DD180008DD180008DD18000854
:1018B000D3180008FFF7E6FAD5E76068430803F598
:1018C000740303F51053B3FBF0F3D2E7FFF78AF983
:1018D000C9E76068430803F58033F4E7012000237B
:1018E000C9E723F00F022168C3F342031343CB601F
:1018F00000232366636638BDFFF7ACFA626800EB2D
:101900005203B3FBF2F39BB20020A3F110014FF698
:10191000EF729142B5D82268D360E9E7FFF7B2FAD7
:10192000ECE76068430803F5F40303F59053B3FB59
:10193000F0F3E8E7FFF756F9E0E76068430803F5DE
:101940000043F4E7B1F5004FC8D001200023DCE7E5
:1019500040548900202F0008F369FFEF0038014050
:10196000001002401C2F000800440040436AFF2B77
:1019700010B5044604D940F627315C4801F0D2F88E
:10198000636AD8070FD5A36A33F4003304D040F656
:101990002C31564801F0C6F82268A16A536823F436
:1019A00000330B435360636A99070FD5E36A33F43E
:1019B000803304D040F633314C4801F0B3F822684C
:1019C000E16A536823F480330B435360636A5A0718
:1019D0000FD5236B33F4802304D040F63A314348CB
:1019E00001F0A0F82268216B536823F480230B4395
:1019F0005360636A1B070FD5636B33F4004304D055
:101A000040F64131394801F08DF82268616B536826
:101A100023F400430B435360636AD8060FD5A36BCE
:101A200033F4805304D040F64831304801F07AF85E
:101A30002268A16B936823F480530B439360636A1D
:101A400099060FD5E36B33F4005304D040F64F31C1
:101A5000264801F067F82268E16B936823F400538D
:101A60000B439360636A5A062BD52268204B9A4237
:101A700004D040F656311D4801F054F8236C33F47D
:101A8000801304D040F65731184801F04BF8216814
:101A9000226C4B6823F480131343B2F5801F4B6014
:101AA0000FD1636C33F4C00304D040F65C310F48AF
:101AB00001F038F82268616C536823F4C0030B43CB
:101AC0005360636A1B060FD5A36C33F4002304D064
:101AD00040F66431054801F025F82268A16C53688E
:101AE00023F400230B43536010BD00BF202F0008D8
:101AF000003801402DE9F041069D04460F46164688
:101B000098462168CA6937EA02030CBF0122002205
:101B1000B24202D00020BDE8F081681CF2D0FEF78E
:101B200075FBA0EB080085422068036800D37DB9EF
:101B300023F4D0730360836823F0010383602023C0
:101B40006367A367002384F870300320BDE8F08149
:101B50005A07D6D5C3691B05D3D54FF4006303627A
:101B6000036823F4D0730360836823F00103836068
:101B700020236367A367E367E4E773B504460026A1
:101B8000C667FEF743FB23681B681A07054615D492
:101B900023681B685B070AD56FF07E430093002221
:101BA0002B464FF480012046FFF7A4FF90B9202375
:101BB0000020636784F87000A3670CE06FF07E4339
:101BC0000093324603464FF400112046FFF792FF80
:101BD0000028DDD0032002B070BD000010B504461F
:101BE000002849D081690368244A002938D09342EB
:101BF0000CD0A2F57442934208D002F58062934261
:101C000004D04FF495711E4800F08CFF636F23B928
:101C100084F87030204600F0E3FF226824236367D5
:101C2000136823F0010313602046FFF78FFD01289E
:101C300022D0636A13B12046FFF798FE23685A68E2
:101C400022F490425A609A6822F02A029A601A6836
:101C500042F0010220461A60BDE81040FFF78DBF38
:101C60009342D3D0074A9342D0D002F58062934288
:101C7000CCD040F22F11C6E7012010BD0038014042
:101C8000202F00080044004008B500F0A9FC002007
:101C900008BD70B5054646692A694068B5F908402F
:101CA0000B4686B0296876B1AD6965B1842C14BF46
:101CB0000334002402958DE8500000F02DFC0590BF
:101CC000059806B070BD842C14BF0334002405AD04
:101CD00092B28DE8300000F056FC0128F0D00020D0
:101CE000EFE708B5002808BF012000F0C1FD002083
:101CF00008BD00F1080343604FF0FF32C360036189
:101D000000238260036070470023036170474368CB
:101D10004B609A688A609A685160996003680861AC
:101D20000133036070470A68531C30B50AD1036958
:101D30005A684A6091608B6059600368086101339A
:101D4000036030BD00F108035C682568AA42EFD348
:101D50002346F9E74168826803698A6082685160B6
:101D60005968884208BF5A60002202611A68013A25
:101D70001A6018687047000082B0002301930D4B71
:101D80001B68013308D04FF0500383F31188BFF371
:101D90006F8FBFF34F8FFEE74FF0500383F311882F
:101DA000BFF36F8FBFF34F8F019B002BFCD002B0AE
:101DB000704700BF0800002008480068006880F3F2
:101DC00008884FF0000080F3148862B661B6BFF354
:101DD0004F8FBFF36F8F00DF00BF000008ED00E002
:101DE000DFF80C00016841F47001016070470000E9
:101DF00088ED00E04FF0807340F8043C074B40F85A
:101E00000C3C21F001016FF0020340F8081C40F87F
:101E1000202C40F8243C4438704700BF791D00084E
:101E2000074B19680868B0E8F04F80F30988BFF3E2
:101E30006F8F4FF0000080F311887047AFF3008080
:101E40004C0C00204FF0500383F31188BFF36F8FC9
:101E5000BFF34F8F0A4A13680133012B13600DD172
:101E6000084B1B6813F0FF0F08D04FF0500383F3AB
:101E70001188BFF36F8FBFF34F8FFEE7704700BF2E
:101E80000800002004ED00E0084A136843B94FF051
:101E9000500383F31188BFF36F8FBFF34F8FFEE7BB
:101EA000013B13600BB983F31188704708000020D1
:101EB000EFF30980BFF36F8F154B1A681EF0100FF8
:101EC00008BF20ED108A20E9F04F10602DE90900CD
:101ED0004FF0500080F31188BFF34F8FBFF36F8F27
:101EE00000F0EAFC4FF0000080F3118809BC19688B
:101EF0000868B0E8F04F1EF0100F08BFB0EC108A71
:101F000080F30988BFF36F8F704700BFAFF3008085
:101F10004C0C002008B54FF0500383F31188BFF339
:101F20006F8FBFF34F8F00F099FB18B1034B4FF049
:101F300080521A60002383F3118808BD04ED00E08D
:101F4000084A0949002313600B60084B4FF47A716B
:101F50001B68B3FBF1F30649013B0B6007231360D9
:101F6000704700BF10E000E018E000E00C00002027
:101F700014E000E0394B3A4A13B51968914208D190
:101F80004FF0500383F31188BFF36F8FBFF34F8F70
:101F9000FEE71A68334B9A4208D14FF0500383F39F
:101FA0001188BFF36F8FBFF34F8FFEE72E4B1A7868
:101FB000D2B20192FF221A701B782C4ADBB28DF844
:101FC00003309DF8033003F050031370284B0722B1
:101FD0001A6000219DF80300000602F1FF340DD4C1
:101FE00001B11A601A68032A11D04FF0500383F32D
:101FF0001188BFF36F8FBFF34F8FFEE79DF803206B
:102000005200D2B28DF8032001212246E2E71202EB
:1020100002F4E0621A60019B134ADBB21370154BA5
:102020001A6842F470021A601A6842F070421A602C
:10203000FFF786FF104B00241C60FFF7D1FE0F4A0C
:10204000136843F040431360FFF7B6FE00F034FC22
:10205000FFF792FE204602B010BD00BF00ED00E089
:1020600071C20F4170C20F4100E400E02C0000205B
:102070003000002020ED00E00800002034EF00E0F8
:1020800010B50F4B1A68824218D35C681919884240
:1020900001BF4168184609195960446801198A420C
:1020A00007D1084909688A421FBF51681268091997
:1020B00041609842026018BF186010BD1346E1E706
:1020C000440C0020340000202DE9F041044600F0CB
:1020D000BDFA3E493E4D0B680BBB3E4A56071FBF3B
:1020E000D01D20F0070002F540631B1A14BF024602
:1020F0004FF440631344083B23F00703364E0B6054
:1021000000207060326058601860981A1360334B7A
:1021100050601860324B18604FF000432B602F68FE
:10212000274216D1002C41D004F1080358071CBFE8
:1021300023F00703083363B1294A1668B342904677
:1021400007D8254A15686868834204D809688D4213
:1021500007D100242AE02C68002CF7D02A46254617
:10216000F1E7296814681160C21A102A0FD9E8181B
:10217000410708D04FF0500383F31188BFF36F8FEE
:10218000BFF34F8FFEE742606B60FFF779FF1349A3
:102190006B680868F61A1F4386424FF00003C8F8C0
:1021A000006038BF0E6008346F602B6000F0E8FA02
:1021B000630708D04FF0500383F31188BFF36F8F8C
:1021C000BFF34F8FFEE72046BDE8F08134000020CA
:1021D000380C002038000020440C0020400C002067
:1021E0003C0C002010B5044670B3184A50F8043C6B
:1021F0001268134208D14FF0500383F31188BFF3E4
:102200006F8FBFF34F8FFEE750F8081C41B14FF0BE
:10221000500383F31188BFF36F8FBFF34F8FFEE737
:1022200023EA020340F8043C00F010FA084A54F88C
:10223000043C1168A4F108000B441360FFF720FF71
:10224000BDE8104000F09CBA10BD00BF380C002063
:102250003C0C00202DE9F0410646FFF7F3FD2D4B25
:102260002D4C1A682D4F01321A602568002D45D17A
:1022700026601B68012B1CD178191435FFF739FD36
:102280008C2DF9D1DFF8C080254D4046FFF731FD98
:102290002846FFF72EFD2348FFF72BFD2248FFF7C6
:1022A00028FD2248FFF725FD214BC3F80080214B74
:1022B0001D60214A21491368086801331360F26ADE
:1022C00001239340034314200B6000FB0270311D77
:1022D000FFF71DFDFFF7D8FD194B1B6863B123689D
:1022E000DA6AF36A9A4207D2164B4FF080521A60AC
:1022F000BFF34F8FBFF36F8FBDE8F081104B1B68AA
:10230000002BD6D12368DA6AF36A9A4298BF266016
:10231000CFE700BFE40C00204C0C0020580C00203C
:10232000100D00202C0D0020580D0020440D002021
:10233000500C0020540C0020F40C0020F80C00205D
:10234000400D002004ED00E0FC0C0020064A13685C
:102350001968064B19B94FF0FF321A6070471268BE
:10236000D268D2685268F8E7500C0020240D002093
:102370002DE9F0470A9CDDF82480266B02F18042AB
:10238000013A06EB82069A4681464B1E26F0070666
:1023900004F134020F31587802F8010B13F8010FE1
:1023A00008B18B42F7D1089D062D28BF06250027CE
:1023B000E5626564201D84F84370A764FFF7A4FC00
:1023C000C5F1070504F11800FFF79EFCE7642461DE
:1023D000A561646284F85070524649463046FFF762
:1023E00009FD2060B8F1000F01D0C8F80040BDE839
:1023F000F08710B590F8513004463BB9006BFFF7F9
:10240000F1FE2046BDE81040FFF7ECBE012BF9D0ED
:10241000022B08D04FF0500383F31188BFF36F8F66
:10242000BFF34F8FFEE710BD80B5DFF85C80124F21
:10243000124C134D236863B9124B1B68012BF8D95A
:102440004FF08053C8F80030BFF34F8FBFF36F8F4A
:10245000EEE7FFF7F7FCFB68DE68301DFFF77AFC5C
:102460002B68013B2B602368013B2360FFF70CFDC9
:102470003046FFF7BEFFDDE7580D0020E80C0020D6
:10248000E40C0020580C002004ED00E0F8B51B4BD4
:102490001B4E1D680446306804300F46FFF75AFC97
:1024A000334640B93168174EC96A32680120884006
:1024B00022EA00023260621C07D137B11968124863
:1024C0000431BDE8F840FFF722BC2C441A68A5424D
:1024D000546007D90D4A10681968BDE8F840043106
:1024E000FFF721BC0A4A106819680431FFF71BFC8A
:1024F000084B1A68944238BF1C60F8BD6C0D002070
:102500004C0C0020F80C0020440D0020540C00203E
:10251000500C0020240D002070B586B00B9D0C9C43
:1025200045B94FF0500383F31188BFF36F8FBFF3AA
:102530004F8FFEE744B94FF0500383F31188BFF388
:102540006F8FBFF34F8FFEE754260496049E542EE0
:1025500008D04FF0500383F31188BFF36F8FBFF3A0
:102560004F8FFEE72563022584F8515005AD019594
:102570000A9D02940095FFF7FBFE2046FFF76AFED6
:10258000059806B070BD2DE9F043074685B0900070
:10259000884616469946FFF797FD0546E8B1542050
:1025A000FFF792FD0446A8B1002380F851300D9B3F
:1025B000056301930C9B0290009332464B464146C3
:1025C0003846FFF7D5FE2046FFF744FE012005B050
:1025D000BDE8F0832846FFF705FE4FF0FF30F6E731
:1025E00010B588B0002407AA06A905A8059406948A
:1025F00000F09CF9059B0293069B019300942346EF
:10260000079A0D490D48FFF787FF90B14FF050032F
:1026100083F31188BFF36F8FBFF34F8F084B4FF0D9
:10262000FF321A60074B01221A60074B1C60FFF74C
:10263000A1FC08B010BD00BF592F000829240008D4
:10264000240D0020400D00206C0D0020024A13686C
:1026500001331360704700BFF00C00202DE9F84FE4
:102660003C4B1B68002B53D13B4B1C6801341C6056
:10267000BCB93A4B1A68126842B14FF0500383F369
:102680001188BFF36F8FBFF34F8FFEE7344A19688D
:10269000106818601160334A136801331360FFF744
:1026A00055FE314D314F2B689C424FF0000B3ED30D
:1026B000DFF8A880DFF8C490D8F80020126872BB59
:1026C0004FF0FF322A6032E006F1040A5046FFF76D
:1026D00041FBB16A19B106F11800FFF73BFBF06A44
:1026E000D9F80030012202FA00F11943204BC9F851
:1026F00000104FF0140E51460EFB0030FFF707FBA1
:102700003868F16AC26A914228BF4FF0010BD3E7E3
:10271000184A1368013313604FF0000B11E0D8F82A
:102720000020D268D66871688C42CDD229603A68A0
:102730000F4BD16A14224A439A58022A28BF4FF0FD
:10274000010B0D4A1268002A18BF4FF0010B5846C2
:10275000BDE8F88FF00C00206C0D0020500C00201C
:10276000540C0020280D0020240D00204C0C0020CB
:10277000580C0020EC0C0020700D0020F80C0020FC
:102780002DE9F843314C236843B94FF0500383F3EC
:102790001188BFF36F8FBFF34F8FFEE7FFF752FB38
:1027A0002368013B236024682CB10024FFF76CFBF5
:1027B0002046BDE8F883264B1B68002BF5D0DFF8D8
:1027C000A890244FDFF8A480D9F80030E3B90CB109
:1027D000FFF7BCFD204D2C6844B1204E0127FFF7C8
:1027E0003DFF00B13760013CF9D12C601B4B1B68E9
:1027F000002BDAD01A4B4FF080521A60BFF34F8F84
:10280000BFF36F8F0124D1E7D9F80C30DC68261DA7
:1028100004F11800FFF79EFA3046FFF79BFAE26AD0
:102820003968012505FA02F314200B4300FB0280EE
:1028300031463B60FFF76BFA0A4BE26A1B68DB6AC2
:102840009A4224BF054B1D60BEE700BFF00C00207C
:10285000E40C0020F80C0020EC0C0020700D00208F
:1028600004ED00E04C0C00202C0D0020580C002042
:1028700008B540B90E4B4FF080521A60BFF34F8F2E
:10288000BFF36F8F08BD0B4B196841B14FF0500378
:1028900083F31188BFF36F8FBFF34F8FFEE7FFF70E
:1028A000D5FEFFF7F3FDFFF76BFF0028E2D008BD70
:1028B00004ED00E0F00C0020174B1A68174B10B520
:1028C00012B101221A6010BD1A60154B1B68B3FAD1
:1028D00083F3DBB2C3F11F03142212495A43881851
:1028E0008C5844B94FF0500383F31188BFF36F8FB6
:1028F000BFF34F8FFEE744680832646844600A44BF
:10290000944204BF62684260142202FB03135B68B6
:10291000DA68054BD6E700BFF00C0020700D0020F0
:10292000F80C0020580C00204C0C0020034B0360D6
:10293000034B0B6080231360704700BF740F0020AF
:10294000740D002007B50B4E0B4C0C4D30464FF468
:102950000051FDF747FE2068009023798DF8043080
:102960000B2269462846FEF72FFCC820FFF7B9F96D
:10297000ECE700BF00040048BC2D0008D00F002089
:1029800010B590B02822002106A800F003FA00211B
:10299000142201A800F0FEF9012306930A934FF4D4
:1029A000803302244FF4A0220E9306A84FF4E013C4
:1029B00007920F930D94FDF727FE0F2301934FF419
:1029C00080620023214601A8029403930492059398
:1029D000FEF73AF910B010BD00B58DB0FDF7F8FB69
:1029E000FFF7CEFF142200210DEB020000F0D2F918
:1029F0003D4B3E485A693E4E42F400225A615A69A4
:102A000002F400220192019A5A6942F480025A614A
:102A10005A6902F480020292029A5A6942F4003220
:102A20005A615A6902F400320392039A5A6942F4D5
:102A300080225A615B6903F48023002204934FF4DF
:102A4000005100244FF40055049BFDF7B1FD294BC4
:102A50002948059505A906930794FDF775FC012300
:102A600005A922480595069307940894FDF76CFC88
:102A70002248234A84604FF4827380E80C004FF4AC
:102A8000E063C3604FF4007383611023C3610723C5
:102A9000C362082343630461446104624462846244
:102AA0000463FEF7B1FA1748174984604FF41643E0
:102AB00080E80A000C234361C46004618461C4613E
:102AC00004624462FFF78AF80FCE05AD0FC596E8A1
:102AD000070085E80700214605A8FFF7DAF80B4B49
:102AE0001860FFF7D1F8FEE700100240000400482C
:102AF000C42D00080000211000080048D00F00205D
:102B0000003C00403410002000440040CC0F002066
:102B10000268034B9A4201D1FDF76CBB704700BFBE
:102B2000002C0140704700000E4B07B59A6942F037
:102B300001029A619A6902F001020092009ADA6930
:102B400042F08052DA61DB6903F080530193002286
:102B50000F216FF00100019BFDF77CFB03B05DF8D6
:102B600004FB00BF0010024010B5044688B01422D8
:102B7000002103A800F00EF92268174B9A4228D1D1
:102B800003F5EA3303A9DA69144842F40042DA6132
:102B9000DA6902F400420192019A5A6942F4002271
:102BA0005A615B6903F400230293029B4FF4E053E4
:102BB0000393022304930323069306230793FDF74D
:102BC000C3FB332000220521FDF744FB3320FDF732
:102BD00083FB08B010BD00BF003C00400008004867
:102BE00010B5044688B01422002103A800F0D2F8E2
:102BF0002268124B9A421ED103F5E63303A9DA6923
:102C000042F40032DA61DA6902F400320192019A88
:102C10005A6942F400325A615B6903F4003302934B
:102C2000029B0C230393022304934FF0904007234D
:102C30000793FDF789FB08B010BD00BF00440040BA
:102C400010B5014688B000221920FDF703FB1920BA
:102C5000FDF742FB144B154C9A6942F400629A61ED
:102C60009B6903F40063029301A903A8029BFEF78A
:102C700021F9FEF707F90E4B236040F2E733E360DA
:102C80000C4BB0FBF3F00138002360602046236159
:102C9000A360FEF7F7FC20B92046FEF7C5FB08B09D
:102CA00010BD0120FBE700BF00100240B41000205F
:102CB000002C014040420F007047FEE7FEE7FEE7B0
:102CC000FEE770470148FEF7EBBB00BFB4100020E1
:102CD0000148FEF721BB00BFD00F0020054BD3F801
:102CE000882042F47002C3F888204FF000629A6096
:102CF000704700BF00ED00E0DFF834D0002103E0B2
:102D00000C4B5B58435004310B480C4B42189A4211
:102D1000F6D30B4A02E0002342F8043B094B9A42E7
:102D2000F9D3FFF7DBFF00F011F8FFF755FEFEE7E0
:102D3000004000208C2F0008000000201000002020
:102D400010000020F4100020FEE7000070B50D4ECA
:102D50000D4CA41BA4100025A54209D10B4E0C4C10
:102D600000F020F8A41BA4100025A54205D170BDD9
:102D700056F8253098470135EEE756F82530984744
:102D80000135F2E7842F0008842F0008842F000803
:102D9000882F000802440346934200D1704703F88D
:102DA000011BF9E7F8B500BFF8BC08BC9E467047A8
:0C2DB000F8B500BFF8BC08BC9E46704798
:102DBC0090000001000000005E2F0008452900086B
:102DCC0000000000000000000002000000000000F5
:102DDC00000000002E2E5C447269766572735C53A1
:102DEC00544D3332463378785F48414C5F447269B6
:102DFC007665725C5372635C73746D3332663378D0
:102E0C00785F68616C5F636F727465782E63002EF7
:102E1C002E5C447269766572735C53544D33324642
:102E2C003378785F48414C5F4472697665725C53C5
:102E3C0072635C73746D3332663378785F68616C7F
:102E4C005F6770696F2E63002E2E5C447269766525
:102E5C0072735C53544D3332463378785F48414C2F
:102E6C005F4472697665725C5372635C73746D3324
:102E7C0032663378785F68616C5F7263632E6300CF
:102E8C0002030405060708090A0B0C0D0E0F10109F
:102E9C000102030405060708090A0B0C0D0E0F109E
:102EAC002E2E5C447269766572735C53544D3332CA
:102EBC00463378785F48414C5F4472697665725C42
:102ECC005372635C73746D3332663378785F686108
:102EDC006C5F7370692E63002E2E5C44726976658C
:102EEC0072735C53544D3332463378785F48414C9F
:102EFC005F4472697665725C5372635C73746D3394
:102F0C0032663378785F68616C5F74696D2E63002C
:102F1C00000408022E2E5C447269766572735C5351
:102F2C00544D3332463378785F48414C5F44726974
:102F3C007665725C5372635C73746D33326633788E
:102F4C00785F68616C5F756172742E630049444CE4
:102F5C00450064656661756C745461736B000000A8
:102F6C00000000000000010203040607080900002D
:082F7C00000001020304000043
:042F8400B50100088B
:042F880091010008AB
:102F8C000100000010000000AAAAAAAA00127A00F0
:0400000508002CF9CA
:00000001FF
